{
  "contractName": "XHalfLife",
  "abi": [
    {
      "anonymous": false,
      "inputs": [
        {
          "indexed": true,
          "internalType": "uint256",
          "name": "streamId",
          "type": "uint256"
        },
        {
          "indexed": true,
          "internalType": "address",
          "name": "sender",
          "type": "address"
        },
        {
          "indexed": true,
          "internalType": "address",
          "name": "recipient",
          "type": "address"
        },
        {
          "indexed": false,
          "internalType": "uint256",
          "name": "senderBalance",
          "type": "uint256"
        },
        {
          "indexed": false,
          "internalType": "uint256",
          "name": "recipientBalance",
          "type": "uint256"
        }
      ],
      "name": "StreamCanceled",
      "type": "event"
    },
    {
      "anonymous": false,
      "inputs": [
        {
          "indexed": true,
          "internalType": "uint256",
          "name": "streamId",
          "type": "uint256"
        },
        {
          "indexed": true,
          "internalType": "address",
          "name": "sender",
          "type": "address"
        },
        {
          "indexed": true,
          "internalType": "address",
          "name": "recipient",
          "type": "address"
        },
        {
          "indexed": false,
          "internalType": "address",
          "name": "token",
          "type": "address"
        },
        {
          "indexed": false,
          "internalType": "uint256",
          "name": "depositAmount",
          "type": "uint256"
        },
        {
          "indexed": false,
          "internalType": "uint256",
          "name": "startBlock",
          "type": "uint256"
        },
        {
          "indexed": false,
          "internalType": "uint256",
          "name": "kBlock",
          "type": "uint256"
        },
        {
          "indexed": false,
          "internalType": "uint256",
          "name": "unlockRatio",
          "type": "uint256"
        }
      ],
      "name": "StreamCreated",
      "type": "event"
    },
    {
      "anonymous": false,
      "inputs": [
        {
          "indexed": true,
          "internalType": "uint256",
          "name": "streamId",
          "type": "uint256"
        },
        {
          "indexed": false,
          "internalType": "uint256",
          "name": "amount",
          "type": "uint256"
        }
      ],
      "name": "StreamFunded",
      "type": "event"
    },
    {
      "anonymous": false,
      "inputs": [
        {
          "indexed": true,
          "internalType": "uint256",
          "name": "streamId",
          "type": "uint256"
        },
        {
          "indexed": true,
          "internalType": "address",
          "name": "recipient",
          "type": "address"
        },
        {
          "indexed": false,
          "internalType": "uint256",
          "name": "amount",
          "type": "uint256"
        }
      ],
      "name": "WithdrawFromStream",
      "type": "event"
    },
    {
      "constant": true,
      "inputs": [],
      "name": "nextStreamId",
      "outputs": [
        {
          "internalType": "uint256",
          "name": "",
          "type": "uint256"
        }
      ],
      "payable": false,
      "stateMutability": "view",
      "type": "function"
    },
    {
      "constant": true,
      "inputs": [
        {
          "internalType": "uint256",
          "name": "",
          "type": "uint256"
        }
      ],
      "name": "streams",
      "outputs": [
        {
          "internalType": "uint256",
          "name": "depositAmount",
          "type": "uint256"
        },
        {
          "internalType": "uint256",
          "name": "remaining",
          "type": "uint256"
        },
        {
          "internalType": "uint256",
          "name": "withdrawable",
          "type": "uint256"
        },
        {
          "internalType": "uint256",
          "name": "startBlock",
          "type": "uint256"
        },
        {
          "internalType": "uint256",
          "name": "kBlock",
          "type": "uint256"
        },
        {
          "internalType": "uint256",
          "name": "unlockRatio",
          "type": "uint256"
        },
        {
          "internalType": "uint256",
          "name": "denom",
          "type": "uint256"
        },
        {
          "internalType": "uint256",
          "name": "lastRewardBlock",
          "type": "uint256"
        },
        {
          "internalType": "address",
          "name": "token",
          "type": "address"
        },
        {
          "internalType": "address",
          "name": "recipient",
          "type": "address"
        },
        {
          "internalType": "address",
          "name": "sender",
          "type": "address"
        },
        {
          "internalType": "bool",
          "name": "isEntity",
          "type": "bool"
        }
      ],
      "payable": false,
      "stateMutability": "view",
      "type": "function"
    },
    {
      "constant": false,
      "inputs": [
        {
          "internalType": "address",
          "name": "token",
          "type": "address"
        },
        {
          "internalType": "address",
          "name": "recipient",
          "type": "address"
        },
        {
          "internalType": "uint256",
          "name": "depositAmount",
          "type": "uint256"
        },
        {
          "internalType": "uint256",
          "name": "startBlock",
          "type": "uint256"
        },
        {
          "internalType": "uint256",
          "name": "kBlock",
          "type": "uint256"
        },
        {
          "internalType": "uint256",
          "name": "unlockRatio",
          "type": "uint256"
        }
      ],
      "name": "createStream",
      "outputs": [
        {
          "internalType": "uint256",
          "name": "",
          "type": "uint256"
        }
      ],
      "payable": false,
      "stateMutability": "nonpayable",
      "type": "function"
    },
    {
      "constant": false,
      "inputs": [
        {
          "internalType": "address",
          "name": "recipient",
          "type": "address"
        },
        {
          "internalType": "uint256",
          "name": "startBlock",
          "type": "uint256"
        },
        {
          "internalType": "uint256",
          "name": "kBlock",
          "type": "uint256"
        },
        {
          "internalType": "uint256",
          "name": "unlockRatio",
          "type": "uint256"
        }
      ],
      "name": "createEtherStream",
      "outputs": [
        {
          "internalType": "uint256",
          "name": "",
          "type": "uint256"
        }
      ],
      "payable": true,
      "stateMutability": "payable",
      "type": "function"
    },
    {
      "constant": true,
      "inputs": [
        {
          "internalType": "uint256",
          "name": "streamId",
          "type": "uint256"
        }
      ],
      "name": "getStream",
      "outputs": [
        {
          "internalType": "address",
          "name": "sender",
          "type": "address"
        },
        {
          "internalType": "address",
          "name": "recipient",
          "type": "address"
        },
        {
          "internalType": "address",
          "name": "token",
          "type": "address"
        },
        {
          "internalType": "uint256",
          "name": "depositAmount",
          "type": "uint256"
        },
        {
          "internalType": "uint256",
          "name": "startBlock",
          "type": "uint256"
        },
        {
          "internalType": "uint256",
          "name": "kBlock",
          "type": "uint256"
        },
        {
          "internalType": "uint256",
          "name": "remaining",
          "type": "uint256"
        },
        {
          "internalType": "uint256",
          "name": "withdrawable",
          "type": "uint256"
        },
        {
          "internalType": "uint256",
          "name": "unlockRatio",
          "type": "uint256"
        },
        {
          "internalType": "uint256",
          "name": "lastRewardBlock",
          "type": "uint256"
        }
      ],
      "payable": false,
      "stateMutability": "view",
      "type": "function"
    },
    {
      "constant": false,
      "inputs": [
        {
          "internalType": "uint256",
          "name": "streamId",
          "type": "uint256"
        },
        {
          "internalType": "uint256",
          "name": "amount",
          "type": "uint256"
        }
      ],
      "name": "fundStream",
      "outputs": [
        {
          "internalType": "bool",
          "name": "",
          "type": "bool"
        }
      ],
      "payable": true,
      "stateMutability": "payable",
      "type": "function"
    },
    {
      "constant": true,
      "inputs": [
        {
          "internalType": "uint256",
          "name": "streamId",
          "type": "uint256"
        }
      ],
      "name": "balanceOf",
      "outputs": [
        {
          "internalType": "uint256",
          "name": "withdrawable",
          "type": "uint256"
        },
        {
          "internalType": "uint256",
          "name": "remaining",
          "type": "uint256"
        }
      ],
      "payable": false,
      "stateMutability": "view",
      "type": "function"
    },
    {
      "constant": false,
      "inputs": [
        {
          "internalType": "uint256",
          "name": "streamId",
          "type": "uint256"
        },
        {
          "internalType": "uint256",
          "name": "amount",
          "type": "uint256"
        }
      ],
      "name": "withdrawFromStream",
      "outputs": [
        {
          "internalType": "bool",
          "name": "",
          "type": "bool"
        }
      ],
      "payable": false,
      "stateMutability": "nonpayable",
      "type": "function"
    },
    {
      "constant": false,
      "inputs": [
        {
          "internalType": "uint256",
          "name": "streamId",
          "type": "uint256"
        }
      ],
      "name": "cancelStream",
      "outputs": [
        {
          "internalType": "bool",
          "name": "",
          "type": "bool"
        }
      ],
      "payable": false,
      "stateMutability": "nonpayable",
      "type": "function"
    },
    {
      "constant": true,
      "inputs": [],
      "name": "getVersion",
      "outputs": [
        {
          "internalType": "bytes32",
          "name": "",
          "type": "bytes32"
        }
      ],
      "payable": false,
      "stateMutability": "pure",
      "type": "function"
    }
  ],
  "bytecode": "0x608060405260018080556000805460ff1916909117905561255f806100256000396000f3fe6080604052600436106100915760003560e01c80636db9241b116100595780636db9241b146101f95780637a9b2c6c14610237578063838ba17614610267578063894e9a0d1461028a5780639cc7f7081461031357610091565b80630626ddd7146100965780630d8e6e2c146100fd5780631e99d56914610112578063306257711461012757806364d60d911461015f575b600080fd5b3480156100a257600080fd5b506100eb600480360360c08110156100b957600080fd5b506001600160a01b03813581169160208101359091169060408101359060608101359060808101359060a00135610356565b60408051918252519081900360200190f35b34801561010957600080fd5b506100eb61093f565b34801561011e57600080fd5b506100eb61094c565b6100eb6004803603608081101561013d57600080fd5b506001600160a01b038135169060208101359060408101359060600135610952565b34801561016b57600080fd5b506101896004803603602081101561018257600080fd5b5035610e11565b604080519c8d5260208d019b909b528b8b019990995260608b019790975260808a019590955260a089019390935260c088019190915260e08701526001600160a01b0390811661010087015290811661012086015216610140840152151561016083015251908190036101800190f35b34801561020557600080fd5b506102236004803603602081101561021c57600080fd5b5035610e85565b604080519115158252519081900360200190f35b34801561024357600080fd5b506102236004803603604081101561025a57600080fd5b5080359060200135611244565b6102236004803603604081101561027d57600080fd5b5080359060200135611569565b34801561029657600080fd5b506102b4600480360360208110156102ad57600080fd5b503561181c565b604080516001600160a01b039b8c168152998b1660208b015297909916888801526060880195909552608087019390935260a086019190915260c085015260e08401526101008301526101208201929092529051908190036101400190f35b34801561031f57600080fd5b5061033d6004803603602081101561033657600080fd5b5035611a12565b6040805192835260208301919091528051918290030190f35b6000858585856001600160a01b0384166103b7576040805162461bcd60e51b815260206004820152601a60248201527f73747265616d20746f20746865207a65726f2061646472657373000000000000604482015290519081900360640190fd5b6001600160a01b038416301415610415576040805162461bcd60e51b815260206004820152601d60248201527f73747265616d20746f2074686520636f6e747261637420697473656c66000000604482015290519081900360640190fd5b6001600160a01b03841633141561046a576040805162461bcd60e51b815260206004820152601460248201527339ba3932b0b6903a37903a34329031b0b63632b960611b604482015290519081900360640190fd5b600083116104b7576040805162461bcd60e51b81526020600482015260156024820152746465706f736974416d6f756e74206973207a65726f60581b604482015290519081900360640190fd5b4382101561050c576040805162461bcd60e51b815260206004820152601f60248201527f737461727420626c6f636b206265666f726520626c6f636b2e6e756d62657200604482015290519081900360640190fd5b60008111610553576040805162461bcd60e51b815260206004820152600f60248201526e6b20626c6f636b206973207a65726f60881b604482015290519081900360640190fd5b6105658b6001600160a01b0316611cc7565b6105a5576040805162461bcd60e51b815260206004820152600c60248201526b1b9bdd0818dbdb9d1c9858dd60a21b604482015290519081900360640190fd5b6105c06001600160a01b038c1633308c63ffffffff611cea16565b6000600154905060008c6001600160a01b031663313ce5676040518163ffffffff1660e01b815260040160206040518083038186803b15801561060257600080fd5b505afa158015610616573d6000803e3d6000fd5b505050506040513d602081101561062c57600080fd5b505160ff16600a0a9050620f4240811015610686576040805162461bcd60e51b8152602060048201526015602482015274746f6b656e20646563696d616c20746f6f206c6f7760581b604482015290519081900360640190fd5b8088106106d4576040805162461bcd60e51b8152602060048201526017602482015276756e6c6f636b526174696f206d757374203c203130302560481b604482015290519081900360640190fd5b6106e6816103e863ffffffff611e5416565b881015610735576040805162461bcd60e51b8152602060048201526018602482015277756e6c6f636b526174696f206d757374203e3d20302e312560401b604482015290519081900360640190fd5b6040518061018001604052808c81526020018c8152602001600081526020018b81526020018a81526020018981526020018281526020018b81526020018e6001600160a01b031681526020018d6001600160a01b03168152602001336001600160a01b031681526020016001151581525060026000848152602001908152602001600020600082015181600001556020820151816001015560408201518160020155606082015181600301556080820151816004015560a0820151816005015560c0820151816006015560e082015181600701556101008201518160080160006101000a8154816001600160a01b0302191690836001600160a01b031602179055506101208201518160090160006101000a8154816001600160a01b0302191690836001600160a01b0316021790555061014082015181600a0160006101000a8154816001600160a01b0302191690836001600160a01b0316021790555061016082015181600a0160146101000a81548160ff021916908315150217905550905050506108cd60018054611e9f90919063ffffffff16565b600155604080516001600160a01b038e81168252602082018d90528183018c9052606082018b9052608082018a90529151918d1691339184917f7310c8f9e75a815c1d827635f05beebdad06978d5e41059afaa48b8e0b2fccf79181900360a00190a49b9a5050505050505050505050565b6541504f4c4c4f60d01b90565b60015481565b6000843485856001600160a01b0384166109b3576040805162461bcd60e51b815260206004820152601a60248201527f73747265616d20746f20746865207a65726f2061646472657373000000000000604482015290519081900360640190fd5b6001600160a01b038416301415610a11576040805162461bcd60e51b815260206004820152601d60248201527f73747265616d20746f2074686520636f6e747261637420697473656c66000000604482015290519081900360640190fd5b6001600160a01b038416331415610a66576040805162461bcd60e51b815260206004820152601460248201527339ba3932b0b6903a37903a34329031b0b63632b960611b604482015290519081900360640190fd5b60008311610ab3576040805162461bcd60e51b81526020600482015260156024820152746465706f736974416d6f756e74206973207a65726f60581b604482015290519081900360640190fd5b43821015610b08576040805162461bcd60e51b815260206004820152601f60248201527f737461727420626c6f636b206265666f726520626c6f636b2e6e756d62657200604482015290519081900360640190fd5b60008111610b4f576040805162461bcd60e51b815260206004820152600f60248201526e6b20626c6f636b206973207a65726f60881b604482015290519081900360640190fd5b66038d7ea4c68000861015610ba6576040805162461bcd60e51b8152602060048201526018602482015277756e6c6f636b526174696f206d757374203e3d20302e312560401b604482015290519081900360640190fd5b670de0b6b3a76400008610610bfc576040805162461bcd60e51b8152602060048201526017602482015276756e6c6f636b526174696f206d757374203c203130302560481b604482015290519081900360640190fd5b60006001549050604051806101800160405280348152602001348152602001600081526020018a8152602001898152602001888152602001670de0b6b3a764000081526020018a815260200160006001600160a01b031681526020018b6001600160a01b03168152602001336001600160a01b031681526020016001151581525060026000838152602001908152602001600020600082015181600001556020820151816001015560408201518160020155606082015181600301556080820151816004015560a0820151816005015560c0820151816006015560e082015181600701556101008201518160080160006101000a8154816001600160a01b0302191690836001600160a01b031602179055506101208201518160090160006101000a8154816001600160a01b0302191690836001600160a01b0316021790555061014082015181600a0160006101000a8154816001600160a01b0302191690836001600160a01b0316021790555061016082015181600a0160146101000a81548160ff021916908315150217905550905050610da360018054611e9f90919063ffffffff16565b60015560408051600081523460208201528082018b9052606081018a90526080810189905290516001600160a01b038c1691339184917f7310c8f9e75a815c1d827635f05beebdad06978d5e41059afaa48b8e0b2fccf7919081900360a00190a49998505050505050505050565b600260208190526000918252604090912080546001820154928201546003830154600484015460058501546006860154600787015460088801546009890154600a909901549799989697959694959394929391926001600160a01b039182169290821691811690600160a01b900460ff168c565b6000805460ff16610edd576040805162461bcd60e51b815260206004820152601f60248201527f5265656e7472616e637947756172643a207265656e7472616e742063616c6c00604482015290519081900360640190fd5b6000805460ff19168155828152600260205260409020600a01548290600160a01b900460ff16610f4c576040805162461bcd60e51b81526020600482015260156024820152741cdd1c99585b48191bd95cc81b9bdd08195e1a5cdd605a1b604482015290519081900360640190fd5b6000838152600260205260409020600a015483906001600160a01b0316331480610f8f57506000818152600260205260409020600901546001600160a01b031633145b610fca5760405162461bcd60e51b81526004018080602001828103825260378152602001806124f46037913960400191505060405180910390fd5b610fd2612394565b5060008481526002602081815260408084208151610180810183528154815260018201549381019390935292830154908201526003820154606082015260048201546080820152600582015460a0820152600682015460c0820152600782015460e082015260088201546001600160a01b0390811661010083015260098301548116610120830152600a90920154918216610140820152600160a01b90910460ff161515610160820152908061108787611a12565b60008981526002602081905260408220828155600181018390559081018290556003810182905560048101829055600581018290556006810182905560078101919091556008810180546001600160a01b03199081169091556009820180549091169055600a0180546001600160a81b031916905590925090508115611166576101008301516001600160a01b031661113e57610120830151611139906001600160a01b03168363ffffffff611ef916565b611166565b611166836101200151838561010001516001600160a01b0316611ffd9092919063ffffffff16565b80156111cb576101008301516001600160a01b03166111a35761014083015161119e906001600160a01b03168263ffffffff611ef916565b6111cb565b6111cb836101400151828561010001516001600160a01b0316611ffd9092919063ffffffff16565b8261012001516001600160a01b03168361014001516001600160a01b0316887f15b38b64ef7ba7c991c4ed5d695a684c71bbfefe84978c647f3ba3e7c77f89188585604051808381526020018281526020019250505060405180910390a46001955050505050506000805460ff19166001179055919050565b6000805460ff1661129c576040805162461bcd60e51b815260206004820152601f60248201527f5265656e7472616e637947756172643a207265656e7472616e742063616c6c00604482015290519081900360640190fd5b6000805460ff19168155838152600260205260409020600a01548390600160a01b900460ff1661130b576040805162461bcd60e51b81526020600482015260156024820152741cdd1c99585b48191bd95cc81b9bdd08195e1a5cdd605a1b604482015290519081900360640190fd5b6000848152600260205260409020600a015484906001600160a01b031633148061134e57506000818152600260205260409020600901546001600160a01b031633145b6113895760405162461bcd60e51b81526004018080602001828103825260378152602001806124f46037913960400191505060405180910390fd5b600085815260026020526040812060068101549091906113b19061271063ffffffff611e5416565b9050808610156113f25760405162461bcd60e51b815260040180806020018281038252603a815260200180612493603a913960400191505060405180910390fd5b6000806113fe89611a12565b91509150878210156114415760405162461bcd60e51b815260040180806020018281038252602d815260200180612445602d913960400191505060405180910390fd5b60088401546001600160a01b0316611476576009840154611471906001600160a01b03168963ffffffff611ef916565b61149d565b6009840154600885015461149d916001600160a01b0391821691168a63ffffffff611ffd16565b60006114ca85600401546114be87600301544361215990919063ffffffff16565b9063ffffffff61219b16565b905060006114de438363ffffffff61215916565b600787018190556001870184905590506114fe848b63ffffffff61215916565b60028701556009860154604080518c815290516001600160a01b03909216918d917f36c3ab437e6a424ed25dc4bfdeb62706aa06558660fab2dab229d2555adaf89c919081900360200190a36001985050505050505050506000805460ff1916600117905592915050565b6000805460ff166115c1576040805162461bcd60e51b815260206004820152601f60248201527f5265656e7472616e637947756172643a207265656e7472616e742063616c6c00604482015290519081900360640190fd5b6000805460ff19168155838152600260205260409020600a01548390600160a01b900460ff16611630576040805162461bcd60e51b81526020600482015260156024820152741cdd1c99585b48191bd95cc81b9bdd08195e1a5cdd605a1b604482015290519081900360640190fd5b6000848152600260205260409020600a8101546001600160a01b031633146116895760405162461bcd60e51b81526004018080602001828103825260278152602001806124cd6027913960400191505060405180910390fd5b600084116116cf576040805162461bcd60e51b815260206004820152600e60248201526d616d6f756e74206973207a65726f60901b604482015290519081900360640190fd5b60088101546001600160a01b031661172b57348414611726576040805162461bcd60e51b815260206004820152600e60248201526d18985908195d1a195c88199d5b9960921b604482015290519081900360640190fd5b61174b565b600881015461174b906001600160a01b031633308763ffffffff611cea16565b60008061175787611a12565b91509150600061177c84600401546114be86600301544361215990919063ffffffff16565b90506000611790438363ffffffff61215916565b6007860181905590506117a9838963ffffffff611e9f16565b60018601556002850184905584546117c7908963ffffffff611e9f16565b85556040805189815290518a917f700a4c5207a5280e621eed38effdd99714a7631fd21eea8da0c30b0f0f76fb05919081900360200190a2600196505050505050506000805460ff1916600117905592915050565b6000806000806000806000806000808a60026000828152602001908152602001600020600a0160149054906101000a900460ff16611899576040805162461bcd60e51b81526020600482015260156024820152741cdd1c99585b48191bd95cc81b9bdd08195e1a5cdd605a1b604482015290519081900360640190fd5b6118a1612394565b600260008e81526020019081526020016000206040518061018001604052908160008201548152602001600182015481526020016002820154815260200160038201548152602001600482015481526020016005820154815260200160068201548152602001600782015481526020016008820160009054906101000a90046001600160a01b03166001600160a01b03166001600160a01b031681526020016009820160009054906101000a90046001600160a01b03166001600160a01b03166001600160a01b03168152602001600a820160009054906101000a90046001600160a01b03166001600160a01b03166001600160a01b03168152602001600a820160149054906101000a900460ff16151515158152505090508061014001519b508061012001519a50806101000151995080600001519850806060015197508060800151965080602001519550806040015194508060a0015193508060e00151925050509193959799509193959799565b6000818152600260205260408120600a015481908390600160a01b900460ff16611a7b576040805162461bcd60e51b81526020600482015260156024820152741cdd1c99585b48191bd95cc81b9bdd08195e1a5cdd605a1b604482015290519081900360640190fd5b611a83612394565b5060008481526002602081815260409283902083516101808101855281548152600182015492810192909252918201549281019290925260038101546060830181905260048201546080840152600582015460a0840152600682015460c0840152600782015460e084015260088201546001600160a01b0390811661010085015260098301548116610120850152600a90920154918216610140840152600160a01b90910460ff161515610160830152431015611b465751600093509150611cc1565b60408101516020820151608083015160e08401516000918291611b819190611b7590439063ffffffff61215916565b9063ffffffff611e5416565b905060005b81811015611bde576000611baf8760c00151611b758960a00151886121dd90919063ffffffff16565b9050611bc1848263ffffffff611e9f16565b9350611bd3858263ffffffff61215916565b945050600101611b86565b5060208501839052604085018290528315611c0e576040850151611c08908563ffffffff611e9f16565b60408601525b845160408601516020870151611c299163ffffffff611e9f16565b1115611c665760405162461bcd60e51b81526004018080602001828103825260328152602001806124136032913960400191505060405180910390fd5b60c0850151600090611c809061271063ffffffff611e5416565b905080866040015110611c995785604001519850611c9e565b600098505b80866020015110611cb55785602001519750611cba565b600097505b5050505050505b50915091565b60006001600160a01b038216611cdf57506000611ce5565b50803b15155b919050565b604080516001600160a01b0385811660248301528481166044830152606480830185905283518084039091018152608490920183526020820180516001600160e01b03166323b872dd60e01b17815292518251600094606094938a169392918291908083835b60208310611d6f5780518252601f199092019160209182019101611d50565b6001836020036101000a0380198251168184511680821785525050505050509050019150506000604051808303816000865af19150503d8060008114611dd1576040519150601f19603f3d011682016040523d82523d6000602084013e611dd6565b606091505b5091509150818015611e04575080511580611e045750808060200190516020811015611e0157600080fd5b50515b611e4c576040805162461bcd60e51b81526020600482015260146024820152731514905394d1915497d19493d357d1905253115160621b604482015290519081900360640190fd5b505050505050565b6000611e9683836040518060400160405280601a81526020017f536166654d6174683a206469766973696f6e206279207a65726f000000000000815250612236565b90505b92915050565b600082820183811015611e96576040805162461bcd60e51b815260206004820152601b60248201527f536166654d6174683a206164646974696f6e206f766572666c6f770000000000604482015290519081900360640190fd5b604080516000808252602082019092526001600160a01b0384169083906040518082805190602001908083835b60208310611f455780518252601f199092019160209182019101611f26565b6001836020036101000a03801982511681845116808217855250505050505090500191505060006040518083038185875af1925050503d8060008114611fa7576040519150601f19603f3d011682016040523d82523d6000602084013e611fac565b606091505b5050905080611ff8576040805162461bcd60e51b815260206004820152601360248201527211551217d514905394d1915497d19052531151606a1b604482015290519081900360640190fd5b505050565b604080516001600160a01b038481166024830152604480830185905283518084039091018152606490920183526020820180516001600160e01b031663a9059cbb60e01b178152925182516000946060949389169392918291908083835b6020831061207a5780518252601f19909201916020918201910161205b565b6001836020036101000a0380198251168184511680821785525050505050509050019150506000604051808303816000865af19150503d80600081146120dc576040519150601f19603f3d011682016040523d82523d6000602084013e6120e1565b606091505b509150915081801561210f57508051158061210f575080806020019051602081101561210c57600080fd5b50515b612152576040805162461bcd60e51b815260206004820152600f60248201526e1514905394d1915497d19052531151608a1b604482015290519081900360640190fd5b5050505050565b6000611e9683836040518060400160405280601e81526020017f536166654d6174683a207375627472616374696f6e206f766572666c6f7700008152506122d8565b6000611e9683836040518060400160405280601881526020017f536166654d6174683a206d6f64756c6f206279207a65726f0000000000000000815250612332565b6000826121ec57506000611e99565b828202828482816121f957fe5b0414611e965760405162461bcd60e51b81526004018080602001828103825260218152602001806124726021913960400191505060405180910390fd5b600081836122c25760405162461bcd60e51b81526004018080602001828103825283818151815260200191508051906020019080838360005b8381101561228757818101518382015260200161226f565b50505050905090810190601f1680156122b45780820380516001836020036101000a031916815260200191505b509250505060405180910390fd5b5060008385816122ce57fe5b0495945050505050565b6000818484111561232a5760405162461bcd60e51b815260206004820181815283516024840152835190928392604490910191908501908083836000831561228757818101518382015260200161226f565b505050900390565b600081836123815760405162461bcd60e51b815260206004820181815283516024840152835190928392604490910191908501908083836000831561228757818101518382015260200161226f565b5082848161238b57fe5b06949350505050565b604051806101800160405280600081526020016000815260200160008152602001600081526020016000815260200160008152602001600081526020016000815260200160006001600160a01b0316815260200160006001600160a01b0316815260200160006001600160a01b03168152602001600015158152509056fe62616c616e63654f663a2072656d61696e696e67206f7220776974686472617761626c6520616d6f756e7420697320626164776974686472617720616d6f756e7420657863656564732074686520617661696c61626c652062616c616e6365536166654d6174683a206d756c7469706c69636174696f6e206f766572666c6f77616d6f756e74206973207a65726f206f72206c6974746c65207468616e20746865206566666563746976652077697468647261772076616c756563616c6c6572206d757374206265207468652073656e646572206f66207468652073747265616d63616c6c6572206973206e6f74207468652073656e646572206f722074686520726563697069656e74206f66207468652073747265616da265627a7a7231582058564d61a889dce7893d75c26fd7c5e0989f8453f7956c120679a6fde87681eb64736f6c63430005110032",
  "source": "pragma solidity 0.5.17;\n\nimport \"@openzeppelin/contracts/math/SafeMath.sol\";\nimport \"@openzeppelin/contracts/utils/ReentrancyGuard.sol\";\n\nimport \"./libs/address.sol\";\nimport \"./interfaces/ERC20.sol\";\n\ncontract XHalfLife is ReentrancyGuard {\n    using SafeMath for uint256;\n    using AddressHelper for address;\n\n    /**\n     * @notice Counter for new stream ids.\n     */\n    uint256 public nextStreamId = 1;\n\n    // halflife stream\n    struct Stream {\n        uint256 depositAmount;\n        uint256 remaining; //un-withdrawable balance\n        uint256 withdrawable; //withdrawable balance\n        uint256 startBlock;\n        uint256 kBlock;\n        uint256 unlockRatio;\n        uint256 denom; // one readable coin represent\n        uint256 lastRewardBlock;\n        address token; // ERC20 token address or 0x0 for Ether\n        address recipient;\n        address sender;\n        bool isEntity;\n    }\n\n    /**\n     * @notice The stream objects identifiable by their unsigned integer ids.\n     */\n    mapping(uint256 => Stream) public streams;\n\n    /**\n     * @dev Throws if the provided id does not point to a valid stream.\n     */\n    modifier streamExists(uint256 streamId) {\n        require(streams[streamId].isEntity, \"stream does not exist\");\n        _;\n    }\n\n    /**\n     * @dev Throws if the caller is not the sender of the recipient of the stream.\n     */\n    modifier onlySenderOrRecipient(uint256 streamId) {\n        require(\n            msg.sender == streams[streamId].sender ||\n                msg.sender == streams[streamId].recipient,\n            \"caller is not the sender or the recipient of the stream\"\n        );\n        _;\n    }\n\n    /**\n     * @dev Throws if the caller is not the sender of the recipient of the stream.\n     *  Throws if the recipient is the zero address, the contract itself or the caller.\n     *  Throws if the depositAmount is 0.\n     *  Throws if the start block is before `block.number`.\n     */\n    modifier createStreamPreflight(\n        address recipient,\n        uint256 depositAmount,\n        uint256 startBlock,\n        uint256 kBlock\n    ) {\n        require(recipient != address(0), \"stream to the zero address\");\n        require(recipient != address(this), \"stream to the contract itself\");\n        require(recipient != msg.sender, \"stream to the caller\");\n        require(depositAmount > 0, \"depositAmount is zero\");\n        require(startBlock >= block.number, \"start block before block.number\");\n        require(kBlock > 0, \"k block is zero\");\n        _;\n    }\n\n    event StreamCreated(\n        uint256 indexed streamId,\n        address indexed sender,\n        address indexed recipient,\n        address token,\n        uint256 depositAmount,\n        uint256 startBlock,\n        uint256 kBlock,\n        uint256 unlockRatio\n    );\n\n    event WithdrawFromStream(\n        uint256 indexed streamId,\n        address indexed recipient,\n        uint256 amount\n    );\n\n    event StreamCanceled(\n        uint256 indexed streamId,\n        address indexed sender,\n        address indexed recipient,\n        uint256 senderBalance,\n        uint256 recipientBalance\n    );\n\n    event StreamFunded(uint256 indexed streamId, uint256 amount);\n\n    /**\n     * @notice Creates a new stream funded by `msg.sender` and paid towards `recipient`.\n     * @dev Throws if paused.\n     *  Throws if the token is not a contract address\n     *  Throws if the recipient is the zero address, the contract itself or the caller.\n     *  Throws if the depositAmount is 0.\n     *  Throws if the start block is before `block.number`.\n     *  Throws if the rate calculation has a math error.\n     *  Throws if the next stream id calculation has a math error.\n     *  Throws if the contract is not allowed to transfer enough tokens.\n     * @param token The ERC20 token address\n     * @param recipient The address towards which the money is streamed.\n     * @param depositAmount The amount of money to be streamed.\n     * @param startBlock stream start block\n     * @param kBlock unlock every k blocks\n     * @param unlockRatio unlock ratio from remaining balance\n     * @return The uint256 id of the newly created stream.\n     */\n    function createStream(\n        address token,\n        address recipient,\n        uint256 depositAmount,\n        uint256 startBlock,\n        uint256 kBlock,\n        uint256 unlockRatio\n    )\n        external\n        createStreamPreflight(recipient, depositAmount, startBlock, kBlock)\n        returns (uint256)\n    {\n        require(token.isContract(), \"not contract\");\n        token.safeTransferFrom(msg.sender, address(this), depositAmount);\n\n        uint256 streamId = nextStreamId;\n        {\n            uint256 denom = 10**uint256(IERC20(token).decimals());\n            require(denom >= 10**6, \"token decimal too low\");\n            require(unlockRatio < denom, \"unlockRatio must < 100%\");\n            require(unlockRatio >= denom.div(1000), \"unlockRatio must >= 0.1%\");\n            streams[streamId] = Stream({\n                token: token,\n                remaining: depositAmount,\n                withdrawable: 0,\n                depositAmount: depositAmount,\n                startBlock: startBlock,\n                kBlock: kBlock,\n                unlockRatio: unlockRatio,\n                denom: denom,\n                lastRewardBlock: startBlock,\n                recipient: recipient,\n                sender: msg.sender,\n                isEntity: true\n            });\n        }\n\n        nextStreamId = nextStreamId.add(1);\n        emit StreamCreated(\n            streamId,\n            msg.sender,\n            recipient,\n            token,\n            depositAmount,\n            startBlock,\n            kBlock,\n            unlockRatio\n        );\n        return streamId;\n    }\n\n    /**\n     * @notice Creates a new ether stream funded by `msg.sender` and paid towards `recipient`.\n     * @dev Throws if paused.\n     *  Throws if the recipient is the zero address, the contract itself or the caller.\n     *  Throws if the depositAmount is 0.\n     *  Throws if the start block is before `block.number`.\n     *  Throws if the rate calculation has a math error.\n     *  Throws if the next stream id calculation has a math error.\n     *  Throws if the contract is not allowed to transfer enough tokens.\n     * @param recipient The address towards which the money is streamed.\n     * @param startBlock stream start block\n     * @param kBlock unlock every k blocks\n     * @param unlockRatio unlock ratio from remaining balance\n     * @return The uint256 id of the newly created stream.\n     */\n    function createEtherStream(\n        address recipient,\n        uint256 startBlock,\n        uint256 kBlock,\n        uint256 unlockRatio\n    )\n        external\n        payable\n        createStreamPreflight(recipient, msg.value, startBlock, kBlock)\n        returns (uint256)\n    {\n        require(unlockRatio >= 10**15, \"unlockRatio must >= 0.1%\");\n        require(unlockRatio < 10**18, \"unlockRatio must < 100%\");\n        /* Create and store the stream object. */\n        uint256 streamId = nextStreamId;\n        streams[streamId] = Stream({\n            token: address(0x0),\n            remaining: msg.value,\n            withdrawable: 0,\n            depositAmount: msg.value,\n            startBlock: startBlock,\n            kBlock: kBlock,\n            unlockRatio: unlockRatio,\n            denom: 10**18,\n            lastRewardBlock: startBlock,\n            recipient: recipient,\n            sender: msg.sender,\n            isEntity: true\n        });\n\n        nextStreamId = nextStreamId.add(1);\n\n        emit StreamCreated(\n            streamId,\n            msg.sender,\n            recipient,\n            address(0x0),\n            msg.value,\n            startBlock,\n            kBlock,\n            unlockRatio\n        );\n        return streamId;\n    }\n\n    /**\n     * @notice Returns the stream with all its properties.\n     * @dev Throws if the id does not point to a valid stream.\n     * @param streamId The id of the stream to query.\n     * @return sender\n     * @return recipient\n     * @return token\n     * @return depositAmount\n     * @return startBlock\n     * @return kBlock\n     * @return remaining\n     * @return withdrawable\n     * @return unlockRatio\n     * @return lastRewardBlock\n     */\n    function getStream(uint256 streamId)\n        external\n        view\n        streamExists(streamId)\n        returns (\n            address sender,\n            address recipient,\n            address token,\n            uint256 depositAmount,\n            uint256 startBlock,\n            uint256 kBlock,\n            uint256 remaining,\n            uint256 withdrawable,\n            uint256 unlockRatio,\n            uint256 lastRewardBlock\n        )\n    {\n        Stream memory stream = streams[streamId];\n        sender = stream.sender;\n        recipient = stream.recipient;\n        token = stream.token;\n        depositAmount = stream.depositAmount;\n        startBlock = stream.startBlock;\n        kBlock = stream.kBlock;\n        remaining = stream.remaining;\n        withdrawable = stream.withdrawable;\n        unlockRatio = stream.unlockRatio;\n        lastRewardBlock = stream.lastRewardBlock;\n    }\n\n    /**\n     * @notice funds to an existing stream.\n     * Throws if the caller is not the stream.sender\n     * @param streamId The id of the stream to query.\n     * @param amount deposit amount by stream sender\n     */\n    function fundStream(uint256 streamId, uint256 amount)\n        public\n        payable\n        nonReentrant\n        streamExists(streamId)\n        returns (bool)\n    {\n        Stream storage stream = streams[streamId];\n        require(\n            msg.sender == stream.sender,\n            \"caller must be the sender of the stream\"\n        );\n        require(amount > 0, \"amount is zero\");\n        if (stream.token == address(0x0)) {\n            require(amount == msg.value, \"bad ether fund\");\n        } else {\n            stream.token.safeTransferFrom(msg.sender, address(this), amount);\n        }\n\n        (uint256 recipientBalance, uint256 remainingBalance) =\n            balanceOf(streamId);\n        uint256 m = block.number.sub(stream.startBlock).mod(stream.kBlock);\n        uint256 lastRewardBlock = block.number.sub(m);\n\n        stream.lastRewardBlock = lastRewardBlock;\n        stream.remaining = remainingBalance.add(amount);\n        stream.withdrawable = recipientBalance;\n\n        //add funds to total deposit amount\n        stream.depositAmount = stream.depositAmount.add(amount);\n        emit StreamFunded(streamId, amount);\n        return true;\n    }\n\n    /**\n     * @notice Returns the available funds for the given stream id and address.\n     * @dev Throws if the id does not point to a valid stream.\n     * @param streamId The id of the stream for which to query the balance.\n     * @return withdrawable The total funds allocated to `recipient` and `sender` as uint256.\n     * @return remaining The total funds allocated to `recipient` and `sender` as uint256.\n     */\n    function balanceOf(uint256 streamId)\n        public\n        view\n        streamExists(streamId)\n        returns (uint256 withdrawable, uint256 remaining)\n    {\n        Stream memory stream = streams[streamId];\n\n        if (block.number < stream.startBlock) {\n            return (0, stream.depositAmount);\n        }\n\n        uint256 lastBalance = stream.withdrawable;\n\n        //If `remaining` not equal zero, it means there have been added funds.\n        uint256 r = stream.remaining;\n        uint256 w = 0;\n        uint256 n = block.number.sub(stream.lastRewardBlock).div(stream.kBlock);\n        for (uint256 i = 0; i < n; i++) {\n            uint256 reward = r.mul(stream.unlockRatio).div(stream.denom);\n            w = w.add(reward);\n            r = r.sub(reward);\n        }\n\n        stream.remaining = r;\n        stream.withdrawable = w;\n        if (lastBalance > 0) {\n            stream.withdrawable = stream.withdrawable.add(lastBalance);\n        }\n\n        //If `remaining` + `withdrawable` < `depositAmount`, it means there have withdraws.\n        require(\n            stream.remaining.add(stream.withdrawable) <= stream.depositAmount,\n            \"balanceOf: remaining or withdrawable amount is bad\"\n        );\n\n        // 0.0001 TOKEN\n        uint256 effectiveValue = stream.denom.div(10**4);\n\n        if (stream.withdrawable >= effectiveValue) {\n            withdrawable = stream.withdrawable;\n        } else {\n            withdrawable = 0;\n        }\n\n        if (stream.remaining >= effectiveValue) {\n            remaining = stream.remaining;\n        } else {\n            remaining = 0;\n        }\n    }\n\n    /**\n     * @notice Withdraws from the contract to the recipient's account.\n     * @dev Throws if the id does not point to a valid stream.\n     *  Throws if the amount exceeds the withdrawable balance.\n     *  Throws if the amount < the effective withdraw value.\n     *  Throws if the caller is not the recipient.\n     * @param streamId The id of the stream to withdraw tokens from.\n     * @param amount The amount of tokens to withdraw.\n     * @return bool true=success, otherwise false.\n     */\n    function withdrawFromStream(uint256 streamId, uint256 amount)\n        external\n        nonReentrant\n        streamExists(streamId)\n        onlySenderOrRecipient(streamId)\n        returns (bool)\n    {\n        Stream storage stream = streams[streamId];\n\n        // 0.0001 TOKEN\n        uint256 effectiveValue = stream.denom.div(10**4);\n\n        require(\n            amount >= effectiveValue,\n            \"amount is zero or little than the effective withdraw value\"\n        );\n\n        (uint256 recipientBalance, uint256 remainingBalance) =\n            balanceOf(streamId);\n\n        require(\n            recipientBalance >= amount,\n            \"withdraw amount exceeds the available balance\"\n        );\n\n        if (stream.token == address(0x0)) {\n            stream.recipient.safeTransferEther(amount);\n        } else {\n            stream.token.safeTransfer(stream.recipient, amount);\n        }\n\n        uint256 m = block.number.sub(stream.startBlock).mod(stream.kBlock);\n        uint256 lastRewardBlock = block.number.sub(m);\n\n        stream.lastRewardBlock = lastRewardBlock;\n        stream.remaining = remainingBalance;\n        stream.withdrawable = recipientBalance.sub(amount);\n\n        emit WithdrawFromStream(streamId, stream.recipient, amount);\n        return true;\n    }\n\n    /**\n     * @notice Cancels the stream and transfers the tokens back\n     * @dev Throws if the id does not point to a valid stream.\n     *  Throws if the caller is not the sender or the recipient of the stream.\n     *  Throws if there is a token transfer failure.\n     * @param streamId The id of the stream to cancel.\n     * @return bool true=success, otherwise false.\n     */\n    function cancelStream(uint256 streamId)\n        external\n        nonReentrant\n        streamExists(streamId)\n        onlySenderOrRecipient(streamId)\n        returns (bool)\n    {\n        Stream memory stream = streams[streamId];\n        (uint256 withdrawable, uint256 remaining) = balanceOf(streamId);\n\n        //save gas\n        delete streams[streamId];\n\n        if (withdrawable > 0) {\n            if (stream.token == address(0x0)) {\n                stream.recipient.safeTransferEther(withdrawable);\n            } else {\n                stream.token.safeTransfer(stream.recipient, withdrawable);\n            }\n        }\n\n        if (remaining > 0) {\n            if (stream.token == address(0x0)) {\n                stream.sender.safeTransferEther(remaining);\n            } else {\n                stream.token.safeTransfer(stream.sender, remaining);\n            }\n        }\n\n        emit StreamCanceled(\n            streamId,\n            stream.sender,\n            stream.recipient,\n            withdrawable,\n            remaining\n        );\n        return true;\n    }\n\n    function getVersion() external pure returns (bytes32) {\n        return bytes32(\"APOLLO\");\n    }\n}\n",
  "sourcePath": "/Users/niutaotao/projects/xDefiLabs/xhalflife-base/contracts/XHalfLife.sol",
  "compiler": {
    "name": "solc",
    "version": "0.5.17+commit.d19bba13.Emscripten.clang"
  },
  "schemaVersion": "3.3.2",
  "updatedAt": "2021-01-06T17:57:09.208Z",
  "devdoc": {
    "methods": {
      "balanceOf(uint256)": {
        "details": "Throws if the id does not point to a valid stream.",
        "params": {
          "streamId": "The id of the stream for which to query the balance."
        },
        "return": "withdrawable The total funds allocated to `recipient` and `sender` as uint256.remaining The total funds allocated to `recipient` and `sender` as uint256."
      },
      "cancelStream(uint256)": {
        "details": "Throws if the id does not point to a valid stream. Throws if the caller is not the sender or the recipient of the stream. Throws if there is a token transfer failure.",
        "params": {
          "streamId": "The id of the stream to cancel."
        },
        "return": "bool true=success, otherwise false."
      },
      "createEtherStream(address,uint256,uint256,uint256)": {
        "details": "Throws if paused. Throws if the recipient is the zero address, the contract itself or the caller. Throws if the depositAmount is 0. Throws if the start block is before `block.number`. Throws if the rate calculation has a math error. Throws if the next stream id calculation has a math error. Throws if the contract is not allowed to transfer enough tokens.",
        "params": {
          "kBlock": "unlock every k blocks",
          "recipient": "The address towards which the money is streamed.",
          "startBlock": "stream start block",
          "unlockRatio": "unlock ratio from remaining balance"
        },
        "return": "The uint256 id of the newly created stream."
      },
      "createStream(address,address,uint256,uint256,uint256,uint256)": {
        "details": "Throws if paused. Throws if the token is not a contract address Throws if the recipient is the zero address, the contract itself or the caller. Throws if the depositAmount is 0. Throws if the start block is before `block.number`. Throws if the rate calculation has a math error. Throws if the next stream id calculation has a math error. Throws if the contract is not allowed to transfer enough tokens.",
        "params": {
          "depositAmount": "The amount of money to be streamed.",
          "kBlock": "unlock every k blocks",
          "recipient": "The address towards which the money is streamed.",
          "startBlock": "stream start block",
          "token": "The ERC20 token address",
          "unlockRatio": "unlock ratio from remaining balance"
        },
        "return": "The uint256 id of the newly created stream."
      },
      "fundStream(uint256,uint256)": {
        "params": {
          "amount": "deposit amount by stream sender",
          "streamId": "The id of the stream to query."
        }
      },
      "getStream(uint256)": {
        "details": "Throws if the id does not point to a valid stream.",
        "params": {
          "streamId": "The id of the stream to query."
        },
        "return": "senderrecipienttokendepositAmountstartBlockkBlockremainingwithdrawableunlockRatiolastRewardBlock"
      },
      "withdrawFromStream(uint256,uint256)": {
        "details": "Throws if the id does not point to a valid stream. Throws if the amount exceeds the withdrawable balance. Throws if the amount < the effective withdraw value. Throws if the caller is not the recipient.",
        "params": {
          "amount": "The amount of tokens to withdraw.",
          "streamId": "The id of the stream to withdraw tokens from."
        },
        "return": "bool true=success, otherwise false."
      }
    }
  },
  "userdoc": {
    "methods": {
      "balanceOf(uint256)": {
        "notice": "Returns the available funds for the given stream id and address."
      },
      "cancelStream(uint256)": {
        "notice": "Cancels the stream and transfers the tokens back"
      },
      "createEtherStream(address,uint256,uint256,uint256)": {
        "notice": "Creates a new ether stream funded by `msg.sender` and paid towards `recipient`."
      },
      "createStream(address,address,uint256,uint256,uint256,uint256)": {
        "notice": "Creates a new stream funded by `msg.sender` and paid towards `recipient`."
      },
      "fundStream(uint256,uint256)": {
        "notice": "funds to an existing stream. Throws if the caller is not the stream.sender"
      },
      "getStream(uint256)": {
        "notice": "Returns the stream with all its properties."
      },
      "withdrawFromStream(uint256,uint256)": {
        "notice": "Withdraws from the contract to the recipient's account."
      }
    }
  }
}